{
  "contractName": "BLT",
  "abi": [
    {
      "constant": true,
      "inputs": [
        {
          "name": "_holder",
          "type": "address"
        }
      ],
      "name": "tokenGrantsCount",
      "outputs": [
        {
          "name": "index",
          "type": "uint256"
        }
      ],
      "payable": false,
      "type": "function",
      "stateMutability": "view"
    },
    {
      "constant": true,
      "inputs": [],
      "name": "name",
      "outputs": [
        {
          "name": "",
          "type": "string"
        }
      ],
      "payable": false,
      "type": "function",
      "stateMutability": "view"
    },
    {
      "constant": false,
      "inputs": [
        {
          "name": "_spender",
          "type": "address"
        },
        {
          "name": "_amount",
          "type": "uint256"
        }
      ],
      "name": "approve",
      "outputs": [
        {
          "name": "success",
          "type": "bool"
        }
      ],
      "payable": false,
      "type": "function",
      "stateMutability": "nonpayable"
    },
    {
      "constant": true,
      "inputs": [
        {
          "name": "_holder",
          "type": "address"
        }
      ],
      "name": "spendableBalanceOf",
      "outputs": [
        {
          "name": "",
          "type": "uint256"
        }
      ],
      "payable": false,
      "type": "function",
      "stateMutability": "view"
    },
    {
      "constant": true,
      "inputs": [],
      "name": "creationBlock",
      "outputs": [
        {
          "name": "",
          "type": "uint256"
        }
      ],
      "payable": false,
      "type": "function",
      "stateMutability": "view"
    },
    {
      "constant": true,
      "inputs": [],
      "name": "totalSupply",
      "outputs": [
        {
          "name": "",
          "type": "uint256"
        }
      ],
      "payable": false,
      "type": "function",
      "stateMutability": "view"
    },
    {
      "constant": false,
      "inputs": [
        {
          "name": "_addr",
          "type": "address"
        },
        {
          "name": "_allowed",
          "type": "bool"
        }
      ],
      "name": "setCanCreateGrants",
      "outputs": [],
      "payable": false,
      "type": "function",
      "stateMutability": "nonpayable"
    },
    {
      "constant": false,
      "inputs": [
        {
          "name": "_from",
          "type": "address"
        },
        {
          "name": "_to",
          "type": "address"
        },
        {
          "name": "_value",
          "type": "uint256"
        }
      ],
      "name": "transferFrom",
      "outputs": [
        {
          "name": "success",
          "type": "bool"
        }
      ],
      "payable": false,
      "type": "function",
      "stateMutability": "nonpayable"
    },
    {
      "constant": true,
      "inputs": [
        {
          "name": "",
          "type": "address"
        },
        {
          "name": "",
          "type": "uint256"
        }
      ],
      "name": "grants",
      "outputs": [
        {
          "name": "granter",
          "type": "address"
        },
        {
          "name": "value",
          "type": "uint256"
        },
        {
          "name": "cliff",
          "type": "uint64"
        },
        {
          "name": "vesting",
          "type": "uint64"
        },
        {
          "name": "start",
          "type": "uint64"
        },
        {
          "name": "revokable",
          "type": "bool"
        },
        {
          "name": "burnsOnRevoke",
          "type": "bool"
        }
      ],
      "payable": false,
      "type": "function",
      "stateMutability": "view"
    },
    {
      "constant": true,
      "inputs": [],
      "name": "decimals",
      "outputs": [
        {
          "name": "",
          "type": "uint8"
        }
      ],
      "payable": false,
      "type": "function",
      "stateMutability": "view"
    },
    {
      "constant": false,
      "inputs": [
        {
          "name": "_newController",
          "type": "address"
        }
      ],
      "name": "changeController",
      "outputs": [],
      "payable": false,
      "type": "function",
      "stateMutability": "nonpayable"
    },
    {
      "constant": true,
      "inputs": [
        {
          "name": "_owner",
          "type": "address"
        },
        {
          "name": "_blockNumber",
          "type": "uint256"
        }
      ],
      "name": "balanceOfAt",
      "outputs": [
        {
          "name": "",
          "type": "uint256"
        }
      ],
      "payable": false,
      "type": "function",
      "stateMutability": "view"
    },
    {
      "constant": true,
      "inputs": [],
      "name": "version",
      "outputs": [
        {
          "name": "",
          "type": "string"
        }
      ],
      "payable": false,
      "type": "function",
      "stateMutability": "view"
    },
    {
      "constant": true,
      "inputs": [
        {
          "name": "_holder",
          "type": "address"
        },
        {
          "name": "_grantId",
          "type": "uint256"
        }
      ],
      "name": "tokenGrant",
      "outputs": [
        {
          "name": "granter",
          "type": "address"
        },
        {
          "name": "value",
          "type": "uint256"
        },
        {
          "name": "vested",
          "type": "uint256"
        },
        {
          "name": "start",
          "type": "uint64"
        },
        {
          "name": "cliff",
          "type": "uint64"
        },
        {
          "name": "vesting",
          "type": "uint64"
        },
        {
          "name": "revokable",
          "type": "bool"
        },
        {
          "name": "burnsOnRevoke",
          "type": "bool"
        }
      ],
      "payable": false,
      "type": "function",
      "stateMutability": "view"
    },
    {
      "constant": false,
      "inputs": [
        {
          "name": "_cloneTokenName",
          "type": "string"
        },
        {
          "name": "_cloneDecimalUnits",
          "type": "uint8"
        },
        {
          "name": "_cloneTokenSymbol",
          "type": "string"
        },
        {
          "name": "_snapshotBlock",
          "type": "uint256"
        },
        {
          "name": "_transfersEnabled",
          "type": "bool"
        }
      ],
      "name": "createCloneToken",
      "outputs": [
        {
          "name": "",
          "type": "address"
        }
      ],
      "payable": false,
      "type": "function",
      "stateMutability": "nonpayable"
    },
    {
      "constant": true,
      "inputs": [
        {
          "name": "holder",
          "type": "address"
        }
      ],
      "name": "lastTokenIsTransferableDate",
      "outputs": [
        {
          "name": "date",
          "type": "uint64"
        }
      ],
      "payable": false,
      "type": "function",
      "stateMutability": "view"
    },
    {
      "constant": true,
      "inputs": [
        {
          "name": "_owner",
          "type": "address"
        }
      ],
      "name": "balanceOf",
      "outputs": [
        {
          "name": "balance",
          "type": "uint256"
        }
      ],
      "payable": false,
      "type": "function",
      "stateMutability": "view"
    },
    {
      "constant": true,
      "inputs": [],
      "name": "parentToken",
      "outputs": [
        {
          "name": "",
          "type": "address"
        }
      ],
      "payable": false,
      "type": "function",
      "stateMutability": "view"
    },
    {
      "constant": false,
      "inputs": [
        {
          "name": "_owner",
          "type": "address"
        },
        {
          "name": "_amount",
          "type": "uint256"
        }
      ],
      "name": "generateTokens",
      "outputs": [
        {
          "name": "",
          "type": "bool"
        }
      ],
      "payable": false,
      "type": "function",
      "stateMutability": "nonpayable"
    },
    {
      "constant": true,
      "inputs": [],
      "name": "symbol",
      "outputs": [
        {
          "name": "",
          "type": "string"
        }
      ],
      "payable": false,
      "type": "function",
      "stateMutability": "view"
    },
    {
      "constant": false,
      "inputs": [
        {
          "name": "_to",
          "type": "address"
        },
        {
          "name": "_value",
          "type": "uint256"
        },
        {
          "name": "_start",
          "type": "uint64"
        },
        {
          "name": "_cliff",
          "type": "uint64"
        },
        {
          "name": "_vesting",
          "type": "uint64"
        },
        {
          "name": "_revokable",
          "type": "bool"
        },
        {
          "name": "_burnsOnRevoke",
          "type": "bool"
        }
      ],
      "name": "grantVestedTokens",
      "outputs": [],
      "payable": false,
      "type": "function",
      "stateMutability": "nonpayable"
    },
    {
      "constant": true,
      "inputs": [
        {
          "name": "_blockNumber",
          "type": "uint256"
        }
      ],
      "name": "totalSupplyAt",
      "outputs": [
        {
          "name": "",
          "type": "uint256"
        }
      ],
      "payable": false,
      "type": "function",
      "stateMutability": "view"
    },
    {
      "constant": false,
      "inputs": [
        {
          "name": "_to",
          "type": "address"
        },
        {
          "name": "_value",
          "type": "uint256"
        }
      ],
      "name": "transfer",
      "outputs": [
        {
          "name": "success",
          "type": "bool"
        }
      ],
      "payable": false,
      "type": "function",
      "stateMutability": "nonpayable"
    },
    {
      "constant": false,
      "inputs": [
        {
          "name": "_holder",
          "type": "address"
        },
        {
          "name": "_receiver",
          "type": "address"
        },
        {
          "name": "_grantId",
          "type": "uint256"
        }
      ],
      "name": "revokeTokenGrant",
      "outputs": [],
      "payable": false,
      "type": "function",
      "stateMutability": "nonpayable"
    },
    {
      "constant": true,
      "inputs": [],
      "name": "transfersEnabled",
      "outputs": [
        {
          "name": "",
          "type": "bool"
        }
      ],
      "payable": false,
      "type": "function",
      "stateMutability": "view"
    },
    {
      "constant": true,
      "inputs": [],
      "name": "parentSnapShotBlock",
      "outputs": [
        {
          "name": "",
          "type": "uint256"
        }
      ],
      "payable": false,
      "type": "function",
      "stateMutability": "view"
    },
    {
      "constant": false,
      "inputs": [
        {
          "name": "_spender",
          "type": "address"
        },
        {
          "name": "_amount",
          "type": "uint256"
        },
        {
          "name": "_extraData",
          "type": "bytes"
        }
      ],
      "name": "approveAndCall",
      "outputs": [
        {
          "name": "success",
          "type": "bool"
        }
      ],
      "payable": false,
      "type": "function",
      "stateMutability": "nonpayable"
    },
    {
      "constant": true,
      "inputs": [
        {
          "name": "holder",
          "type": "address"
        },
        {
          "name": "time",
          "type": "uint64"
        }
      ],
      "name": "transferableTokens",
      "outputs": [
        {
          "name": "",
          "type": "uint256"
        }
      ],
      "payable": false,
      "type": "function",
      "stateMutability": "view"
    },
    {
      "constant": false,
      "inputs": [
        {
          "name": "_owner",
          "type": "address"
        },
        {
          "name": "_amount",
          "type": "uint256"
        }
      ],
      "name": "destroyTokens",
      "outputs": [
        {
          "name": "",
          "type": "bool"
        }
      ],
      "payable": false,
      "type": "function",
      "stateMutability": "nonpayable"
    },
    {
      "constant": true,
      "inputs": [
        {
          "name": "_owner",
          "type": "address"
        },
        {
          "name": "_spender",
          "type": "address"
        }
      ],
      "name": "allowance",
      "outputs": [
        {
          "name": "remaining",
          "type": "uint256"
        }
      ],
      "payable": false,
      "type": "function",
      "stateMutability": "view"
    },
    {
      "constant": false,
      "inputs": [
        {
          "name": "_token",
          "type": "address"
        }
      ],
      "name": "claimTokens",
      "outputs": [],
      "payable": false,
      "type": "function",
      "stateMutability": "nonpayable"
    },
    {
      "constant": true,
      "inputs": [],
      "name": "tokenFactory",
      "outputs": [
        {
          "name": "",
          "type": "address"
        }
      ],
      "payable": false,
      "type": "function",
      "stateMutability": "view"
    },
    {
      "constant": false,
      "inputs": [
        {
          "name": "_transfersEnabled",
          "type": "bool"
        }
      ],
      "name": "enableTransfers",
      "outputs": [],
      "payable": false,
      "type": "function",
      "stateMutability": "nonpayable"
    },
    {
      "constant": true,
      "inputs": [],
      "name": "controller",
      "outputs": [
        {
          "name": "",
          "type": "address"
        }
      ],
      "payable": false,
      "type": "function",
      "stateMutability": "view"
    },
    {
      "constant": false,
      "inputs": [
        {
          "name": "_newWhitelister",
          "type": "address"
        }
      ],
      "name": "changeVestingWhitelister",
      "outputs": [],
      "payable": false,
      "type": "function",
      "stateMutability": "nonpayable"
    },
    {
      "inputs": [
        {
          "name": "_tokenFactory",
          "type": "address"
        }
      ],
      "payable": false,
      "type": "constructor",
      "stateMutability": "nonpayable"
    },
    {
      "payable": true,
      "type": "fallback",
      "stateMutability": "payable"
    },
    {
      "anonymous": false,
      "inputs": [
        {
          "indexed": true,
          "name": "from",
          "type": "address"
        },
        {
          "indexed": true,
          "name": "to",
          "type": "address"
        },
        {
          "indexed": false,
          "name": "value",
          "type": "uint256"
        },
        {
          "indexed": false,
          "name": "grantId",
          "type": "uint256"
        }
      ],
      "name": "NewTokenGrant",
      "type": "event"
    },
    {
      "anonymous": false,
      "inputs": [
        {
          "indexed": true,
          "name": "_token",
          "type": "address"
        },
        {
          "indexed": true,
          "name": "_controller",
          "type": "address"
        },
        {
          "indexed": false,
          "name": "_amount",
          "type": "uint256"
        }
      ],
      "name": "ClaimedTokens",
      "type": "event"
    },
    {
      "anonymous": false,
      "inputs": [
        {
          "indexed": true,
          "name": "_from",
          "type": "address"
        },
        {
          "indexed": true,
          "name": "_to",
          "type": "address"
        },
        {
          "indexed": false,
          "name": "_amount",
          "type": "uint256"
        }
      ],
      "name": "Transfer",
      "type": "event"
    },
    {
      "anonymous": false,
      "inputs": [
        {
          "indexed": true,
          "name": "_cloneToken",
          "type": "address"
        },
        {
          "indexed": false,
          "name": "_snapshotBlock",
          "type": "uint256"
        }
      ],
      "name": "NewCloneToken",
      "type": "event"
    },
    {
      "anonymous": false,
      "inputs": [
        {
          "indexed": true,
          "name": "_owner",
          "type": "address"
        },
        {
          "indexed": true,
          "name": "_spender",
          "type": "address"
        },
        {
          "indexed": false,
          "name": "_amount",
          "type": "uint256"
        }
      ],
      "name": "Approval",
      "type": "event"
    }
  ],
  "bytecode": "0x606060405260408051908101604052600781527f4d4d545f302e3100000000000000000000000000000000000000000000000000602082015260049080516200004d92916020019062000207565b5034156200005a57600080fd5b60405160208062002a258339810160405280805191508190506000806040805190810160405280600b81526020017f426c6f6f6d20546f6b656e000000000000000000000000000000000000000000815250601260408051908101604052600381527f424c540000000000000000000000000000000000000000000000000000000000602082015260008054600160a060020a03338116600160a060020a031990921691909117909155600b80549188166101000261010060a860020a0319909216919091179055600186868686868686808480516200013f92916020019062000207565b506002805460ff191660ff851617905560038280516200016492916020019062000207565b5060058054600160a060020a0319908116600160a060020a0398891617909155600695909555600b805460ff191691151591909117905550504360075550600e80549091163383161790819055620001ce9250166001640100000000620001dc810262001f711704565b5050505050505050620002ac565b600160a060020a03919091166000908152600d60205260409020805460ff1916911515919091179055565b828054600181600116156101000203166002900490600052602060002090601f016020900481019282601f106200024a57805160ff19168380011785556200027a565b828001600101855582156200027a579182015b828111156200027a5782518255916020019190600101906200025d565b50620002889291506200028c565b5090565b620002a991905b8082111562000288576000815560010162000293565b90565b61276980620002bc6000396000f3006060604052361561019b5763ffffffff60e060020a60003504166302a72a4c811461024057806306fdde0314610271578063095ea7b3146102fb5780630f8f8b8314610331578063176345141461035057806318160ddd146103635780631f9a391c1461037657806323b872dd1461039a5780632c71e60a146103c2578063313ce5671461043d5780633cebb823146104665780634ee2cd7e1461048557806354fd4d50146104a7578063600e85b7146104ba5780636638c0871461053b5780636c182e99146105ff57806370a082311461063b57806380a540011461065a578063827f32c01461066d57806395d89b411461068f5780639754a4d9146106a2578063981b24d0146106e7578063a9059cbb146106fd578063b0cf0dcb1461071f578063bef97c8714610747578063c5bcc4f11461075a578063cae9ca511461076d578063d347c205146107d2578063d3ce77fe146107fe578063dd62ed3e14610820578063df8de3e714610845578063e77772fe14610864578063f41e60c514610877578063f77c47911461088f578063fb13a707146108a2575b6000546101b090600160a060020a03166108c1565b15156101bb57600080fd5b60008054600160a060020a03169063f48c305490349033906040516020015260405160e060020a63ffffffff8516028152600160a060020a0390911660048201526024016020604051808303818588803b151561021757600080fd5b6125ee5a03f1151561022857600080fd5b5050505060405180519050151561023e57600080fd5b005b341561024b57600080fd5b61025f600160a060020a03600435166108ee565b60405190815260200160405180910390f35b341561027c57600080fd5b61028461090d565b60405160208082528190810183818151815260200191508051906020019080838360005b838110156102c05780820151838201526020016102a8565b50505050905090810190601f1680156102ed5780820380516001836020036101000a031916815260200191505b509250505060405180910390f35b341561030657600080fd5b61031d600160a060020a03600435166024356109ab565b604051901515815260200160405180910390f35b341561033c57600080fd5b61025f600160a060020a0360043516610b14565b341561035b57600080fd5b61025f610b20565b341561036e57600080fd5b61025f610b26565b341561038157600080fd5b61023e600160a060020a03600435166024351515610b37565b34156103a557600080fd5b61031d600160a060020a0360043581169060243516604435610b60565b34156103cd57600080fd5b6103e4600160a060020a0360043516602435610b90565b604051600160a060020a039097168752602087019590955267ffffffffffffffff93841660408088019190915292841660608701529216608085015290151560a084015290151560c083015260e0909101905180910390f35b341561044857600080fd5b610450610c14565b60405160ff909116815260200160405180910390f35b341561047157600080fd5b61023e600160a060020a0360043516610c1d565b341561049057600080fd5b61025f600160a060020a0360043516602435610c5a565b34156104b257600080fd5b610284610d90565b34156104c557600080fd5b6104dc600160a060020a0360043516602435610dfb565b604051600160a060020a039098168852602088019690965260408088019590955267ffffffffffffffff9384166060880152918316608087015290911660a0850152151560c084015290151560e0830152610100909101905180910390f35b341561054657600080fd5b6105e360046024813581810190830135806020601f8201819004810201604051908101604052818152929190602084018383808284378201915050505050509190803560ff1690602001909190803590602001908201803590602001908080601f016020809104026020016040519081016040528181529291906020840183838082843750949650508435946020013515159350610f4592505050565b604051600160a060020a03909116815260200160405180910390f35b341561060a57600080fd5b61061e600160a060020a0360043516611173565b60405167ffffffffffffffff909116815260200160405180910390f35b341561064657600080fd5b61025f600160a060020a03600435166111fa565b341561066557600080fd5b6105e3611206565b341561067857600080fd5b61031d600160a060020a0360043516602435611215565b341561069a57600080fd5b6102846112e5565b34156106ad57600080fd5b61023e600160a060020a036004351660243567ffffffffffffffff6044358116906064358116906084351660a435151560c4351515611350565b34156106f257600080fd5b61025f60043561162a565b341561070857600080fd5b61031d600160a060020a0360043516602435611713565b341561072a57600080fd5b61023e600160a060020a036004358116906024351660443561173f565b341561075257600080fd5b61031d611a3e565b341561076557600080fd5b61025f611a47565b341561077857600080fd5b61031d60048035600160a060020a03169060248035919060649060443590810190830135806020601f82018190048102016040519081016040528181529291906020840183838082843750949650611a4d95505050505050565b34156107dd57600080fd5b61025f600160a060020a036004351667ffffffffffffffff60243516611b6a565b341561080957600080fd5b61031d600160a060020a0360043516602435611c1d565b341561082b57600080fd5b61025f600160a060020a0360043581169060243516611ce7565b341561085057600080fd5b61023e600160a060020a0360043516611d12565b341561086f57600080fd5b6105e3611ebe565b341561088257600080fd5b61023e6004351515611ed2565b341561089a57600080fd5b6105e3611f00565b34156108ad57600080fd5b61023e600160a060020a0360043516611f0f565b600080600160a060020a03831615156108dd57600091506108e8565b823b90506000811191505b50919050565b600160a060020a0381166000908152600c60205260409020545b919050565b60018054600181600116156101000203166002900480601f0160208091040260200160405190810160405280929190818152602001828054600181600116156101000203166002900480156109a35780601f10610978576101008083540402835291602001916109a3565b820191906000526020600020905b81548152906001019060200180831161098657829003601f168201915b505050505081565b600b5460009060ff1615156109bf57600080fd5b8115806109ef5750600160a060020a03338116600090815260096020908152604080832093871683529290522054155b15156109fa57600080fd5b600054610a0f90600160a060020a03166108c1565b15610aaa5760008054600160a060020a03169063da682aeb903390869086906040516020015260405160e060020a63ffffffff8616028152600160a060020a0393841660048201529190921660248201526044810191909152606401602060405180830381600087803b1515610a8457600080fd5b6102c65a03f11515610a9557600080fd5b505050604051805190501515610aaa57600080fd5b600160a060020a03338116600081815260096020908152604080832094881680845294909152908190208590557f8c5be1e5ebec7d5bd14f71427d1e84f3dd0314c0f7b2291e5b200ac8c7c3b9259085905190815260200160405180910390a35060015b92915050565b6000610b0e8242611b6a565b60075481565b6000610b314361162a565b90505b90565b600e5433600160a060020a03908116911614610b5257600080fd5b610b5c8282611f71565b5050565b6000838280610b6e83610b14565b1015610b7957600080fd5b610b84868686611f9c565b92505b50509392505050565b600c60205281600052604060002081815481101515610bab57fe5b6000918252602090912060039091020180546001820154600290920154600160a060020a03909116935090915067ffffffffffffffff80821691680100000000000000008104821691608060020a8204169060ff60c060020a820481169160c860020a90041687565b60025460ff1681565b60005433600160a060020a03908116911614610c3857600080fd5b60008054600160a060020a031916600160a060020a0392909216919091179055565b600160a060020a0382166000908152600860205260408120541580610cb65750600160a060020a038316600090815260086020526040812080548492908110610c9f57fe5b6000918252602090912001546001608060020a0316115b15610d6757600554600160a060020a031615610d5f57600554600654600160a060020a0390911690634ee2cd7e908590610cf190869061203c565b60006040516020015260405160e060020a63ffffffff8516028152600160a060020a0390921660048301526024820152604401602060405180830381600087803b1515610d3d57600080fd5b6102c65a03f11515610d4e57600080fd5b505050604051805190509050610b0e565b506000610b0e565b600160a060020a0383166000908152600860205260409020610d899083612052565b9050610b0e565b60048054600181600116156101000203166002900480601f0160208091040260200160405190810160405280929190818152602001828054600181600116156101000203166002900480156109a35780601f10610978576101008083540402835291602001916109a3565b6000806000806000806000806000600c60008c600160a060020a0316600160a060020a031681526020019081526020016000208a815481101515610e3b57fe5b60009182526020909120600390910201805460018201546002830154600160a060020a039092169b50995067ffffffffffffffff608060020a820481169850808216975068010000000000000000820416955060ff60c060020a82048116955060c860020a9091041692509050610f358160e060405190810160409081528254600160a060020a031682526001830154602083015260029092015467ffffffffffffffff8082169383019390935268010000000000000000810483166060830152608060020a8104909216608082015260ff60c060020a83048116151560a083015260c860020a909204909116151560c082015242612195565b9650509295985092959890939650565b600080831515610f53574393505b600b546101009004600160a060020a0316635b7b72c130868a8a8a8960006040516020015260405160e060020a63ffffffff8916028152600160a060020a038716600482019081526024820187905260ff8516606483015282151560a483015260c0604483019081529091608481019060c40187818151815260200191508051906020019080838360005b83811015610ff6578082015183820152602001610fde565b50505050905090810190601f1680156110235780820380516001836020036101000a031916815260200191505b50838103825285818151815260200191508051906020019080838360005b83811015611059578082015183820152602001611041565b50505050905090810190601f1680156110865780820380516001836020036101000a031916815260200191505b5098505050505050505050602060405180830381600087803b15156110aa57600080fd5b6102c65a03f115156110bb57600080fd5b5050506040518051915050600160a060020a038116633cebb8233360405160e060020a63ffffffff8416028152600160a060020a039091166004820152602401600060405180830381600087803b151561111457600080fd5b6102c65a03f1151561112557600080fd5b50505080600160a060020a03167f086c875b377f900b07ce03575813022f05dd10ed7640b5282cf6d3c3fc352ade8560405190815260200160405180910390a28091505b5095945050505050565b42600080611180846108ee565b9150600090505b818110156111f357600160a060020a0384166000908152600c6020526040902080546111e9918591849081106111b957fe5b600091825260209091206003909102016002015468010000000000000000900467ffffffffffffffff16906121dc565b9250600101611187565b5050919050565b6000610b0e8243610c5a565b600554600160a060020a031681565b600080548190819033600160a060020a0390811691161461123557600080fd5b61123d610b26565b91508382018290101561124f57600080fd5b611258856111fa565b90508381018190101561126a57600080fd5b611277600a858401612200565b600160a060020a038516600090815260086020526040902061129b90828601612200565b84600160a060020a031660007fddf252ad1be2c89b69c2b068fc378daa952ba7f163c4a11628f55a4df523b3ef8660405190815260200160405180910390a3506001949350505050565b60038054600181600116156101000203166002900480601f0160208091040260200160405190810160405280929190818152602001828054600181600116156101000203166002900480156109a35780601f10610978576101008083540402835291602001916109a3565b611358612643565b600067ffffffffffffffff808816908716101561137457600080fd5b67ffffffffffffffff808816908616101561138e57600080fd5b67ffffffffffffffff80871690861610156113a857600080fd5b600160a060020a0333166000908152600d602052604090205460ff1615156113cf57600080fd5b60146113da8a6108ee565b106113e457600080fd5b60e060405190810160405280856113fc5760006113fe565b335b600160a060020a031681526020018981526020018767ffffffffffffffff1681526020018667ffffffffffffffff1681526020018867ffffffffffffffff16815260200185151581526020018415158152509150600c60008a600160a060020a0316600160a060020a031681526020019081526020016000208054806001018281611489919061267f565b6000928352602090922084916003020181518154600160a060020a031916600160a060020a039190911617815560208201518160010155604082015160028201805467ffffffffffffffff191667ffffffffffffffff9290921691909117905560608201518160020160086101000a81548167ffffffffffffffff021916908367ffffffffffffffff16021790555060808201518160020160106101000a81548167ffffffffffffffff021916908367ffffffffffffffff16021790555060a082015160028201805491151560c060020a0278ff0000000000000000000000000000000000000000000000001990921691909117905560c08201516002909101805491151560c860020a0279ff00000000000000000000000000000000000000000000000000199092169190911790555090506115c68989611713565b15156115ce57fe5b88600160a060020a031633600160a060020a03167ff9565aecd648a0466ffb964a79eeccdf1120ad6276189c687a6e9fe73984d9bb8a6001850360405191825260208201526040908101905180910390a3505050505050505050565b600a54600090158061165f575081600a600081548110151561164857fe5b6000918252602090912001546001608060020a0316115b1561170157600554600160a060020a0316156116f957600554600654600160a060020a039091169063981b24d09061169890859061203c565b60006040516020015260405160e060020a63ffffffff84160281526004810191909152602401602060405180830381600087803b15156116d757600080fd5b6102c65a03f115156116e857600080fd5b505050604051805190509050610908565b506000610908565b61170c600a83612052565b9050610908565b600033828061172183610b14565b101561172c57600080fd5b61173685856122dc565b95945050505050565b600e546000908190819033600160a060020a0390811691161461176157600080fd5b600160a060020a0386166000908152600c6020526040902080548590811061178557fe5b906000526020600020906003020192508260020160189054906101000a900460ff1615156117b257600080fd5b825433600160a060020a039081169116146117cc57600080fd5b600283015460c860020a900460ff166117e557846117e9565b61dead5b91506117f583426122fb565b600160a060020a0387166000908152600c602052604090208054919250908590811061181d57fe5b6000918252602080832060039092029091018054600160a060020a031916815560018082018490556002909101805479ffffffffffffffffffffffffffffffffffffffffffffffffffff19169055600160a060020a0389168352600c909152604090912080549091611895919063ffffffff61239e16565b8154811061189f57fe5b9060005260206000209060030201600c600088600160a060020a0316600160a060020a03168152602001908152602001600020858154811015156118df57fe5b6000918252602080832084546003909302018054600160a060020a031916600160a060020a03938416178155600180860154908201556002948501805495909101805467ffffffffffffffff191667ffffffffffffffff96871617808255825468010000000000000000908190048816026fffffffffffffffff000000000000000019909116178082558254608060020a9081900490971690960277ffffffffffffffff000000000000000000000000000000001990961695909517808655815460ff60c060020a918290048116151590910278ff0000000000000000000000000000000000000000000000001990921691909117808755915460c860020a9081900490911615150279ff00000000000000000000000000000000000000000000000000199091161790935588168152600c9091526040902080546000190190611a29908261267f565b50611a358683836123b0565b50505050505050565b600b5460ff1681565b60065481565b6000611a5984846109ab565b1515611a6457600080fd5b83600160a060020a0316638f4ffcb1338530866040518563ffffffff1660e060020a0281526004018085600160a060020a0316600160a060020a0316815260200184815260200183600160a060020a0316600160a060020a0316815260200180602001828103825283818151815260200191508051906020019080838360005b83811015611afc578082015183820152602001611ae4565b50505050905090810190601f168015611b295780820380516001836020036101000a031916815260200191505b5095505050505050600060405180830381600087803b1515611b4a57600080fd5b6102c65a03f11515611b5b57600080fd5b505050600190505b9392505050565b600080600080611b79866108ee565b9250821515611b9257611b8b866111fa565b9350611c14565b5060009050805b82811015611bf857600160a060020a0386166000908152600c602052604090208054611bee91611be19184908110611bcd57fe5b9060005260206000209060030201876122fb565b839063ffffffff61258c16565b9150600101611b99565b611c1182611c05886111fa565b9063ffffffff61239e16565b93505b50505092915050565b600080548190819033600160a060020a03908116911614611c3d57600080fd5b611c45610b26565b915083821015611c5457600080fd5b611c5d856111fa565b905083811015611c6c57600080fd5b611c79600a858403612200565b600160a060020a0385166000908152600860205260409020611c9d90858303612200565b600085600160a060020a03167fddf252ad1be2c89b69c2b068fc378daa952ba7f163c4a11628f55a4df523b3ef8660405190815260200160405180910390a3506001949350505050565b600160a060020a03918216600090815260096020908152604080832093909416825291909152205490565b60008054819033600160a060020a03908116911614611d3057600080fd5b600160a060020a0383161515611d7e57600054600160a060020a039081169030163180156108fc0290604051600060405180830381858888f193505050501515611d7957600080fd5b611eb9565b82915081600160a060020a03166370a082313060006040516020015260405160e060020a63ffffffff8416028152600160a060020a039091166004820152602401602060405180830381600087803b1515611dd857600080fd5b6102c65a03f11515611de957600080fd5b505050604051805160008054919350600160a060020a03808616935063a9059cbb92169084906040516020015260405160e060020a63ffffffff8516028152600160a060020a0390921660048301526024820152604401602060405180830381600087803b1515611e5957600080fd5b6102c65a03f11515611e6a57600080fd5b50505060405180515050600054600160a060020a039081169084167ff931edb47c50b4b4104c187b5814a9aef5f709e17e2ecf9617e860cacade929c8360405190815260200160405180910390a35b505050565b600b546101009004600160a060020a031681565b60005433600160a060020a03908116911614611eed57600080fd5b600b805460ff1916911515919091179055565b600054600160a060020a031681565b600e5433600160a060020a03908116911614611f2a57600080fd5b600e54611f4190600160a060020a03166000611f71565b600e8054600160a060020a031916600160a060020a038381169190911791829055611f6e91166001611f71565b50565b600160a060020a03919091166000908152600d60205260409020805460ff1916911515919091179055565b6000805433600160a060020a0390811691161461202957600b5460ff161515611fc457600080fd5b600160a060020a038085166000908152600960209081526040808320339094168352929052205482901015611ffb57506000611b63565b600160a060020a03808516600090815260096020908152604080832033909416835292905220805483900390555b6120348484846123b0565b949350505050565b600081831061204b5781611b63565b5090919050565b60008060008085805490506000141561206e5760009350611c14565b85548690600019810190811061208057fe5b6000918252602090912001546001608060020a031685106120d0578554869060001981019081106120ad57fe5b600091825260209091200154608060020a90046001608060020a03169350611c14565b8560008154811015156120df57fe5b6000918252602090912001546001608060020a03168510156121045760009350611c14565b8554600093506000190191505b8282111561216157600260018385010104905084868281548110151561213357fe5b6000918252602090912001546001608060020a0316116121555780925061215c565b6001810391505b612111565b858381548110151561216f57fe5b600091825260209091200154608060020a90046001608060020a03169695505050505050565b6000611b6383602001518367ffffffffffffffff16856080015167ffffffffffffffff16866040015167ffffffffffffffff16876060015167ffffffffffffffff1661259b565b60008167ffffffffffffffff168367ffffffffffffffff16101561204b5781611b63565b8154600090819015806122395750835443908590600019810190811061222257fe5b6000918252602090912001546001608060020a0316105b1561229e578354849061224f82600183016126ab565b8154811061225957fe5b600091825260209091200180546001608060020a03858116608060020a024382166fffffffffffffffffffffffffffffffff19909316929092171617815591506122d6565b8354849060001981019081106122b057fe5b600091825260209091200180546001608060020a03808616608060020a02911617815590505b50505050565b600b5460009060ff1615156122f057600080fd5b611b633384846123b0565b6000611b6361238d8460e060405190810160409081528254600160a060020a031682526001830154602083015260029092015467ffffffffffffffff8082169383019390935268010000000000000000810483166060830152608060020a8104909216608082015260ff60c060020a83048116151560a083015260c860020a909204909116151560c082015284612195565b60018501549063ffffffff61239e16565b6000828211156123aa57fe5b50900390565b600080808315156123c45760019250610b87565b6006544390106123d357600080fd5b600160a060020a038516158015906123fd575030600160a060020a031685600160a060020a031614155b151561240857600080fd5b6124128643610c5a565b9150838210156124255760009250610b87565b60005461243a90600160a060020a03166108c1565b156124d55760008054600160a060020a031690634a393149908890889088906040516020015260405160e060020a63ffffffff8616028152600160a060020a0393841660048201529190921660248201526044810191909152606401602060405180830381600087803b15156124af57600080fd5b6102c65a03f115156124c057600080fd5b5050506040518051905015156124d557600080fd5b600160a060020a03861660009081526008602052604090206124f990858403612200565b6125038543610c5a565b90508381018190101561251557600080fd5b600160a060020a038516600090815260086020526040902061253990828601612200565b84600160a060020a031686600160a060020a03167fddf252ad1be2c89b69c2b068fc378daa952ba7f163c4a11628f55a4df523b3ef8660405190815260200160405180910390a350600195945050505050565b600082820183811015611b6357fe5b600080838610156125af5760009150611169565b8286106125be57869150611169565b6125fd6125d1848763ffffffff61239e16565b6125f16125e4898963ffffffff61239e16565b8a9063ffffffff61260816565b9063ffffffff61262c16565b979650505050505050565b6000828202831580612624575082848281151561262157fe5b04145b1515611b6357fe5b600080828481151561263a57fe5b04949350505050565b60e06040519081016040908152600080835260208301819052908201819052606082018190526080820181905260a0820181905260c082015290565b815481835581811511611eb957600302816003028360005260206000209182019101611eb991906126cf565b815481835581811511611eb957600083815260209020611eb9918101908301612723565b610b3491905b8082111561271f578054600160a060020a03191681556000600182015560028101805479ffffffffffffffffffffffffffffffffffffffffffffffffffff191690556003016126d5565b5090565b610b3491905b8082111561271f57600081556001016127295600a165627a7a72305820f79a16bf0d13305b5229a203d0a14ef24e10941518aadae1aa62e12d2a66b4590029",
  "source": "pragma solidity ^0.4.15;\n\nimport \"./MiniMeVestedToken.sol\";\n\n/**\n * @title BLT\n * @dev Bloom's network token.\n */\ncontract BLT is MiniMeVestedToken {\n  function BLT(address _tokenFactory) MiniMeVestedToken(\n    _tokenFactory,\n    0x0,           // no parent token\n    0,             // no snapshot block number from parent\n    \"Bloom Token\", // Token name\n    18,            // Decimals\n    \"BLT\",         // Symbol\n    true           // Enable transfers\n  ) {}\n}\n",
  "sourcePath": "/Users/johnbackus/Projects/bloom/core/contracts/BLT.sol",
  "schemaVersion": "1.0.0",
  "updatedAt": "2017-11-12T02:12:32.423Z"
}