{
  "contractName": "ConvertLib",
  "abi": [
    {
      "constant": false,
      "inputs": [
        {
          "name": "amount",
          "type": "uint256"
        },
        {
          "name": "conversionRate",
          "type": "uint256"
        }
      ],
      "name": "convert",
      "outputs": [
        {
          "name": "convertedAmount",
          "type": "uint256"
        }
      ],
      "payable": false,
      "type": "function",
      "stateMutability": "nonpayable"
    }
  ],
  "bytecode": "0x60606040523415600e57600080fd5b60898061001c6000396000f300606060405263ffffffff7c010000000000000000000000000000000000000000000000000000000060003504166396e4ee3d8114603b57600080fd5b60476004356024356059565b60405190815260200160405180910390f35b02905600a165627a7a723058207c8935bf91c561ff346e41dc0661373c7ba285ee339f09be9e78cbea359fcbcd0029",
  "source": "pragma solidity ^0.4.4;\n\nlibrary ConvertLib{\n\tfunction convert(uint amount,uint conversionRate) returns (uint convertedAmount)\n\t{\n\t\treturn amount * conversionRate;\n\t}\n}\n",
  "sourcePath": "/Users/johnbackus/Projects/bloom/core/contracts/ConvertLib.sol",
  "schemaVersion": "1.0.0",
  "updatedAt": "2017-11-12T01:04:05.119Z"
}