{
  "contractName": "InviteCollateralizer",
  "abi": [
    {
      "constant": true,
      "inputs": [],
      "name": "registry",
      "outputs": [
        {
          "name": "",
          "type": "address"
        }
      ],
      "payable": false,
      "type": "function",
      "stateMutability": "view"
    },
    {
      "constant": true,
      "inputs": [],
      "name": "owner",
      "outputs": [
        {
          "name": "",
          "type": "address"
        }
      ],
      "payable": false,
      "type": "function",
      "stateMutability": "view"
    },
    {
      "constant": true,
      "inputs": [],
      "name": "blt",
      "outputs": [
        {
          "name": "",
          "type": "address"
        }
      ],
      "payable": false,
      "type": "function",
      "stateMutability": "view"
    },
    {
      "constant": false,
      "inputs": [
        {
          "name": "_owner",
          "type": "address"
        }
      ],
      "name": "takeCollateral",
      "outputs": [
        {
          "name": "",
          "type": "bool"
        }
      ],
      "payable": false,
      "type": "function",
      "stateMutability": "nonpayable"
    },
    {
      "inputs": [
        {
          "name": "newOwner",
          "type": "address"
        },
        {
          "name": "_blt",
          "type": "address"
        }
      ],
      "payable": false,
      "type": "function",
      "constant": false,
      "name": "transferOwnership",
      "outputs": [],
      "stateMutability": "nonpayable"
    },
    {
      "anonymous": false,
      "inputs": [
        {
          "indexed": true,
          "name": "_registry",
          "type": "address"
        },
        {
          "indexed": true,
          "name": "_blt",
          "type": "address"
        }
      ],
      "name": "OwnershipTransferred",
      "type": "constructor",
      "payable": false,
      "stateMutability": "nonpayable"
    },
    {
      "anonymous": false,
      "inputs": [
        {
          "indexed": true,
          "name": "previousOwner",
          "type": "address"
        },
        {
          "indexed": true,
          "name": "newOwner",
          "type": "address"
        }
      ],
      "name": "OwnershipTransferred",
      "type": "event"
    }
  ],
  "bytecode": "0x6060604052341561000f57600080fd5b604051604080610328833981016040528080519190602001805160008054600160a060020a03338116600160a060020a0319928316179092556001805496831696821696909617909555600280549190921694169390931790925550506102ad8061007b6000396000f300606060405263ffffffff7c01000000000000000000000000000000000000000000000000000000006000350416637b10399981146100685780638da5cb5b14610097578063cfc4af05146100aa578063d75b2b18146100bd578063f2fde38b146100f057600080fd5b341561007357600080fd5b61007b610111565b604051600160a060020a03909116815260200160405180910390f35b34156100a257600080fd5b61007b610120565b34156100b557600080fd5b61007b61012f565b34156100c857600080fd5b6100dc600160a060020a036004351661013e565b604051901515815260200160405180910390f35b34156100fb57600080fd5b61010f600160a060020a03600435166101e6565b005b600154600160a060020a031681565b600054600160a060020a031681565b600254600160a060020a031681565b600254600090600160a060020a03166323b872dd8330600185604051602001526040517c010000000000000000000000000000000000000000000000000000000063ffffffff8616028152600160a060020a0393841660048201529190921660248201526044810191909152606401602060405180830381600087803b15156101c657600080fd5b6102c65a03f115156101d757600080fd5b50505060405180519392505050565b60005433600160a060020a0390811691161461020157600080fd5b600160a060020a038116151561021657600080fd5b600054600160a060020a0380831691167f8be0079c531659141344cd1fd0a4f28419497f9722a3daafe3b4186f6b6457e060405160405180910390a36000805473ffffffffffffffffffffffffffffffffffffffff1916600160a060020a03929092169190911790555600a165627a7a72305820ab38a3b65d8efc3cd4f88743c5ec3b4fbc5723ad5a45cf69a443fd3aa7c3cb120029",
  "source": "pragma solidity ^0.4.15;\n\nimport \"zeppelin/ownership/Ownable.sol\";\nimport \"zeppelin/token/SafeERC20.sol\";\nimport \"./MockBLT.sol\";\n\ncontract AccountRegistry is Ownable {\n  mapping(address => bool) public accounts;\n  mapping(address => bool) public invites;\n  mapping(address => mapping(address => bool)) pendingInvites;\n  address public inviteCollateralizer;\n  MockBLT public blt;\n\n  function AccountRegistry(MockBLT _blt) {\n    inviteCollateralizer = new InviteCollateralizer(this, _blt);\n    blt = _blt;\n    accounts[owner] = true;\n  }\n\n  function createAccount() {\n    require(invites[msg.sender] && !accounts[msg.sender]);\n  }\n\n  function invite(address _recipient) {\n    require(accounts[msg.sender] && !invites[_recipient]);\n    // require(InviteCollateralizer(inviteCollateralizer).takeCollateral(msg.sender));\n    InviteCollateralizer(inviteCollateralizer).takeCollateral(msg.sender);\n    invites[_recipient] = true;\n  }\n}\n\ncontract InviteCollateralizer is Ownable {\n  using SafeERC20 for MockBLT;\n  AccountRegistry public registry;\n  MockBLT public blt;\n\n  function InviteCollateralizer(AccountRegistry _registry, MockBLT _blt) {\n    registry = _registry;\n    blt = _blt;\n  }\n\n  function takeCollateral(address _owner) returns (bool) {\n    return blt.transferFrom(_owner, address(this), 1);\n  }\n}\n",
  "sourcePath": "/Users/johnbackus/Projects/bloom/core/contracts/AccountRegistry.sol",
  "schemaVersion": "1.0.0",
  "updatedAt": "2017-11-12T02:27:04.132Z"
}